{
  "_format": "hh-sol-artifact-1",
  "contractName": "DiceGame",
  "sourceName": "contracts/DiceGame.sol",
  "abi": [
    {
      "inputs": [
        {
          "internalType": "address",
          "name": "initialOwner",
          "type": "address"
        },
        {
          "internalType": "address payable",
          "name": "_treasury",
          "type": "address"
        },
        {
          "internalType": "address",
          "name": "_leaderboard",
          "type": "address"
        },
        {
          "internalType": "address",
          "name": "_usdc",
          "type": "address"
        }
      ],
      "stateMutability": "nonpayable",
      "type": "constructor"
    },
    {
      "inputs": [
        {
          "internalType": "address",
          "name": "owner",
          "type": "address"
        }
      ],
      "name": "OwnableInvalidOwner",
      "type": "error"
    },
    {
      "inputs": [
        {
          "internalType": "address",
          "name": "account",
          "type": "address"
        }
      ],
      "name": "OwnableUnauthorizedAccount",
      "type": "error"
    },
    {
      "inputs": [
        {
          "internalType": "address",
          "name": "token",
          "type": "address"
        }
      ],
      "name": "SafeERC20FailedOperation",
      "type": "error"
    },
    {
      "anonymous": false,
      "inputs": [
        {
          "indexed": true,
          "internalType": "uint256",
          "name": "gameId",
          "type": "uint256"
        },
        {
          "indexed": false,
          "internalType": "address",
          "name": "player1",
          "type": "address"
        },
        {
          "indexed": false,
          "internalType": "address",
          "name": "token",
          "type": "address"
        },
        {
          "indexed": false,
          "internalType": "uint256",
          "name": "stake",
          "type": "uint256"
        }
      ],
      "name": "GameCreated",
      "type": "event"
    },
    {
      "anonymous": false,
      "inputs": [
        {
          "indexed": true,
          "internalType": "uint256",
          "name": "gameId",
          "type": "uint256"
        },
        {
          "indexed": false,
          "internalType": "address",
          "name": "player2",
          "type": "address"
        }
      ],
      "name": "GameJoined",
      "type": "event"
    },
    {
      "anonymous": false,
      "inputs": [
        {
          "indexed": true,
          "internalType": "uint256",
          "name": "gameId",
          "type": "uint256"
        },
        {
          "indexed": false,
          "internalType": "address",
          "name": "winner",
          "type": "address"
        },
        {
          "indexed": false,
          "internalType": "uint256",
          "name": "roll1",
          "type": "uint256"
        },
        {
          "indexed": false,
          "internalType": "uint256",
          "name": "roll2",
          "type": "uint256"
        },
        {
          "indexed": false,
          "internalType": "uint256",
          "name": "payout",
          "type": "uint256"
        }
      ],
      "name": "GameResolved",
      "type": "event"
    },
    {
      "anonymous": false,
      "inputs": [
        {
          "indexed": true,
          "internalType": "address",
          "name": "previousOwner",
          "type": "address"
        },
        {
          "indexed": true,
          "internalType": "address",
          "name": "newOwner",
          "type": "address"
        }
      ],
      "name": "OwnershipTransferred",
      "type": "event"
    },
    {
      "anonymous": false,
      "inputs": [
        {
          "indexed": true,
          "internalType": "uint256",
          "name": "gameId",
          "type": "uint256"
        },
        {
          "indexed": false,
          "internalType": "address",
          "name": "player1",
          "type": "address"
        },
        {
          "indexed": false,
          "internalType": "uint256",
          "name": "amount",
          "type": "uint256"
        }
      ],
      "name": "Refunded",
      "type": "event"
    },
    {
      "inputs": [],
      "name": "createGameETH",
      "outputs": [],
      "stateMutability": "payable",
      "type": "function"
    },
    {
      "inputs": [
        {
          "internalType": "uint256",
          "name": "amount",
          "type": "uint256"
        }
      ],
      "name": "createGameUSDC",
      "outputs": [],
      "stateMutability": "nonpayable",
      "type": "function"
    },
    {
      "inputs": [
        {
          "internalType": "uint256",
          "name": "",
          "type": "uint256"
        }
      ],
      "name": "games",
      "outputs": [
        {
          "internalType": "address",
          "name": "player1",
          "type": "address"
        },
        {
          "internalType": "address",
          "name": "player2",
          "type": "address"
        },
        {
          "internalType": "address",
          "name": "token",
          "type": "address"
        },
        {
          "internalType": "uint256",
          "name": "stake",
          "type": "uint256"
        },
        {
          "internalType": "uint256",
          "name": "startTime",
          "type": "uint256"
        },
        {
          "internalType": "bool",
          "name": "isActive",
          "type": "bool"
        }
      ],
      "stateMutability": "view",
      "type": "function"
    },
    {
      "inputs": [
        {
          "internalType": "uint256",
          "name": "gameId",
          "type": "uint256"
        }
      ],
      "name": "joinGame",
      "outputs": [],
      "stateMutability": "payable",
      "type": "function"
    },
    {
      "inputs": [],
      "name": "leaderboard",
      "outputs": [
        {
          "internalType": "contract Leaderboard",
          "name": "",
          "type": "address"
        }
      ],
      "stateMutability": "view",
      "type": "function"
    },
    {
      "inputs": [],
      "name": "nextGameId",
      "outputs": [
        {
          "internalType": "uint256",
          "name": "",
          "type": "uint256"
        }
      ],
      "stateMutability": "view",
      "type": "function"
    },
    {
      "inputs": [],
      "name": "owner",
      "outputs": [
        {
          "internalType": "address",
          "name": "",
          "type": "address"
        }
      ],
      "stateMutability": "view",
      "type": "function"
    },
    {
      "inputs": [
        {
          "internalType": "uint256",
          "name": "gameId",
          "type": "uint256"
        }
      ],
      "name": "refund",
      "outputs": [],
      "stateMutability": "nonpayable",
      "type": "function"
    },
    {
      "inputs": [],
      "name": "renounceOwnership",
      "outputs": [],
      "stateMutability": "nonpayable",
      "type": "function"
    },
    {
      "inputs": [
        {
          "internalType": "address",
          "name": "newOwner",
          "type": "address"
        }
      ],
      "name": "transferOwnership",
      "outputs": [],
      "stateMutability": "nonpayable",
      "type": "function"
    },
    {
      "inputs": [],
      "name": "treasury",
      "outputs": [
        {
          "internalType": "contract Treasury",
          "name": "",
          "type": "address"
        }
      ],
      "stateMutability": "view",
      "type": "function"
    },
    {
      "inputs": [],
      "name": "usdc",
      "outputs": [
        {
          "internalType": "contract IERC20",
          "name": "",
          "type": "address"
        }
      ],
      "stateMutability": "view",
      "type": "function"
    }
  ],
  "bytecode": "0x60e060405234801561001057600080fd5b50604051612a99380380612a998339818101604052810190610032919061039d565b83600073ffffffffffffffffffffffffffffffffffffffff168173ffffffffffffffffffffffffffffffffffffffff16036100a55760006040517f1e4fbdf700000000000000000000000000000000000000000000000000000000815260040161009c9190610413565b60405180910390fd5b6100b48161023860201b60201c565b50600073ffffffffffffffffffffffffffffffffffffffff168373ffffffffffffffffffffffffffffffffffffffff1603610124576040517f08c379a000000000000000000000000000000000000000000000000000000000815260040161011b9061048b565b60405180910390fd5b600073ffffffffffffffffffffffffffffffffffffffff168273ffffffffffffffffffffffffffffffffffffffff1603610193576040517f08c379a000000000000000000000000000000000000000000000000000000000815260040161018a906104f7565b60405180910390fd5b8273ffffffffffffffffffffffffffffffffffffffff1660808173ffffffffffffffffffffffffffffffffffffffff16815250508173ffffffffffffffffffffffffffffffffffffffff1660a08173ffffffffffffffffffffffffffffffffffffffff16815250508073ffffffffffffffffffffffffffffffffffffffff1660c08173ffffffffffffffffffffffffffffffffffffffff168152505050505050610517565b60008060009054906101000a900473ffffffffffffffffffffffffffffffffffffffff169050816000806101000a81548173ffffffffffffffffffffffffffffffffffffffff021916908373ffffffffffffffffffffffffffffffffffffffff1602179055508173ffffffffffffffffffffffffffffffffffffffff168173ffffffffffffffffffffffffffffffffffffffff167f8be0079c531659141344cd1fd0a4f28419497f9722a3daafe3b4186f6b6457e060405160405180910390a35050565b600080fd5b600073ffffffffffffffffffffffffffffffffffffffff82169050919050565b600061032c82610301565b9050919050565b61033c81610321565b811461034757600080fd5b50565b60008151905061035981610333565b92915050565b600061036a82610301565b9050919050565b61037a8161035f565b811461038557600080fd5b50565b60008151905061039781610371565b92915050565b600080600080608085870312156103b7576103b66102fc565b5b60006103c58782880161034a565b94505060206103d687828801610388565b93505060406103e78782880161034a565b92505060606103f88782880161034a565b91505092959194509250565b61040d81610321565b82525050565b60006020820190506104286000830184610404565b92915050565b600082825260208201905092915050565b7f496e76616c696420747265617375727920616464726573730000000000000000600082015250565b600061047560188361042e565b91506104808261043f565b602082019050919050565b600060208201905081810360008301526104a481610468565b9050919050565b7f496e76616c6964206c6561646572626f61726420616464726573730000000000600082015250565b60006104e1601b8361042e565b91506104ec826104ab565b602082019050919050565b60006020820190508181036000830152610510816104d4565b9050919050565b60805160a05160c051612506610593600039600081816106870152818161073101528181610861015281816108ac01528181610b77015281816116c501526117100152600081816108d6015281816113bb0152611442015260008181610755015281816112e80152818161152301526116a301526125066000f3fe6080604052600436106100a75760003560e01c80638da5cb5b116100645780638da5cb5b1461018e578063b135bbb0146101b9578063d6c7e965146101e4578063eb56b7401461020d578063efaa55a014610238578063f2fde38b14610254576100a7565b8063117a5b90146100ac578063278ecde1146100ee5780633e413bee1461011757806361d027b3146101425780636b121d2d1461016d578063715018a614610177575b600080fd5b3480156100b857600080fd5b506100d360048036038101906100ce9190611884565b61027d565b6040516100e59695949392919061191c565b60405180910390f35b3480156100fa57600080fd5b5061011560048036038101906101109190611884565b610326565b005b34801561012357600080fd5b5061012c61072f565b60405161013991906119dc565b60405180910390f35b34801561014e57600080fd5b50610157610753565b6040516101649190611a2a565b60405180910390f35b610175610777565b005b34801561018357600080fd5b5061018c6107d0565b005b34801561019a57600080fd5b506101a36107e4565b6040516101b09190611a45565b60405180910390f35b3480156101c557600080fd5b506101ce61080d565b6040516101db9190611a60565b60405180910390f35b3480156101f057600080fd5b5061020b60048036038101906102069190611884565b610813565b005b34801561021957600080fd5b506102226108d4565b60405161022f9190611a9c565b60405180910390f35b610252600480360381019061024d9190611884565b6108f8565b005b34801561026057600080fd5b5061027b60048036038101906102769190611ae3565b610c45565b005b60026020528060005260406000206000915090508060000160009054906101000a900473ffffffffffffffffffffffffffffffffffffffff16908060010160009054906101000a900473ffffffffffffffffffffffffffffffffffffffff16908060020160009054906101000a900473ffffffffffffffffffffffffffffffffffffffff16908060030154908060040154908060050160009054906101000a900460ff16905086565b60006002600083815260200190815260200160002090508060050160009054906101000a900460ff1661038e576040517f08c379a000000000000000000000000000000000000000000000000000000000815260040161038590611b6d565b60405180910390fd5b600073ffffffffffffffffffffffffffffffffffffffff168160010160009054906101000a900473ffffffffffffffffffffffffffffffffffffffff1673ffffffffffffffffffffffffffffffffffffffff1614610421576040517f08c379a000000000000000000000000000000000000000000000000000000000815260040161041890611bd9565b60405180910390fd5b8060000160009054906101000a900473ffffffffffffffffffffffffffffffffffffffff1673ffffffffffffffffffffffffffffffffffffffff163373ffffffffffffffffffffffffffffffffffffffff16146104b3576040517f08c379a00000000000000000000000000000000000000000000000000000000081526004016104aa90611c45565b60405180910390fd5b6201518081600401546104c69190611c94565b421015610508576040517f08c379a00000000000000000000000000000000000000000000000000000000081526004016104ff90611d14565b60405180910390fd5b60008160050160006101000a81548160ff021916908315150217905550600081600301549050600073ffffffffffffffffffffffffffffffffffffffff168260020160009054906101000a900473ffffffffffffffffffffffffffffffffffffffff1673ffffffffffffffffffffffffffffffffffffffff160361065c5760008260000160009054906101000a900473ffffffffffffffffffffffffffffffffffffffff1673ffffffffffffffffffffffffffffffffffffffff16826040516105d090611d65565b60006040518083038185875af1925050503d806000811461060d576040519150601f19603f3d011682016040523d82523d6000602084013e610612565b606091505b5050905080610656576040517f08c379a000000000000000000000000000000000000000000000000000000000815260040161064d90611dc6565b60405180910390fd5b506106cc565b6106cb8260000160009054906101000a900473ffffffffffffffffffffffffffffffffffffffff16827f000000000000000000000000000000000000000000000000000000000000000073ffffffffffffffffffffffffffffffffffffffff16610ccb9092919063ffffffff16565b5b827f7ca5472b7ea78c2c0141c5a12ee6d170cf4ce8ed06be3d22c8252ddfc7a6a2c48360000160009054906101000a900473ffffffffffffffffffffffffffffffffffffffff1683604051610722929190611de6565b60405180910390a2505050565b7f000000000000000000000000000000000000000000000000000000000000000081565b7f000000000000000000000000000000000000000000000000000000000000000081565b67016345785d8a00003410156107c2576040517f08c379a00000000000000000000000000000000000000000000000000000000081526004016107b990611e5b565b60405180910390fd5b6107ce33600034610d4a565b565b6107d8610f39565b6107e26000610fc0565b565b60008060009054906101000a900473ffffffffffffffffffffffffffffffffffffffff16905090565b60015481565b620186a0811015610859576040517f08c379a000000000000000000000000000000000000000000000000000000000815260040161085090611ec7565b60405180910390fd5b6108a63330837f000000000000000000000000000000000000000000000000000000000000000073ffffffffffffffffffffffffffffffffffffffff16611084909392919063ffffffff16565b6108d1337f000000000000000000000000000000000000000000000000000000000000000083610d4a565b50565b7f000000000000000000000000000000000000000000000000000000000000000081565b60006002600083815260200190815260200160002090508060050160009054906101000a900460ff16610960576040517f08c379a000000000000000000000000000000000000000000000000000000000815260040161095790611b6d565b60405180910390fd5b600073ffffffffffffffffffffffffffffffffffffffff168160010160009054906101000a900473ffffffffffffffffffffffffffffffffffffffff1673ffffffffffffffffffffffffffffffffffffffff16146109f3576040517f08c379a00000000000000000000000000000000000000000000000000000000081526004016109ea90611bd9565b60405180910390fd5b8060000160009054906101000a900473ffffffffffffffffffffffffffffffffffffffff1673ffffffffffffffffffffffffffffffffffffffff163373ffffffffffffffffffffffffffffffffffffffff1603610a85576040517f08c379a0000000000000000000000000000000000000000000000000000000008152600401610a7c90611f33565b60405180910390fd5b600073ffffffffffffffffffffffffffffffffffffffff168160020160009054906101000a900473ffffffffffffffffffffffffffffffffffffffff1673ffffffffffffffffffffffffffffffffffffffff1603610b285780600301543414610b23576040517f08c379a0000000000000000000000000000000000000000000000000000000008152600401610b1a90611f9f565b60405180910390fd5b610bbd565b60003414610b6b576040517f08c379a0000000000000000000000000000000000000000000000000000000008152600401610b629061200b565b60405180910390fd5b610bbc333083600301547f000000000000000000000000000000000000000000000000000000000000000073ffffffffffffffffffffffffffffffffffffffff16611084909392919063ffffffff16565b5b338160010160006101000a81548173ffffffffffffffffffffffffffffffffffffffff021916908373ffffffffffffffffffffffffffffffffffffffff160217905550817f45c4f9cbafe186141862608c493f28b823fde4c2142bedc3f5169961a73fdd2233604051610c309190611a45565b60405180910390a2610c4182611106565b5050565b610c4d610f39565b600073ffffffffffffffffffffffffffffffffffffffff168173ffffffffffffffffffffffffffffffffffffffff1603610cbf5760006040517f1e4fbdf7000000000000000000000000000000000000000000000000000000008152600401610cb69190611a45565b60405180910390fd5b610cc881610fc0565b50565b610d45838473ffffffffffffffffffffffffffffffffffffffff1663a9059cbb8585604051602401610cfe929190611de6565b604051602081830303815290604052915060e01b6020820180517bffffffffffffffffffffffffffffffffffffffffffffffffffffffff838183161783525050505061179f565b505050565b6040518060c001604052808473ffffffffffffffffffffffffffffffffffffffff168152602001600073ffffffffffffffffffffffffffffffffffffffff1681526020018373ffffffffffffffffffffffffffffffffffffffff1681526020018281526020014281526020016001151581525060026000600154815260200190815260200160002060008201518160000160006101000a81548173ffffffffffffffffffffffffffffffffffffffff021916908373ffffffffffffffffffffffffffffffffffffffff16021790555060208201518160010160006101000a81548173ffffffffffffffffffffffffffffffffffffffff021916908373ffffffffffffffffffffffffffffffffffffffff16021790555060408201518160020160006101000a81548173ffffffffffffffffffffffffffffffffffffffff021916908373ffffffffffffffffffffffffffffffffffffffff160217905550606082015181600301556080820151816004015560a08201518160050160006101000a81548160ff0219169083151502179055509050506001547f6200407c0ea392b8107b21a9be480acd41fda186d04bed28cc7da2d4b53d56e2848484604051610f149392919061202b565b60405180910390a260016000815480929190610f2f90612062565b9190505550505050565b610f41611841565b73ffffffffffffffffffffffffffffffffffffffff16610f5f6107e4565b73ffffffffffffffffffffffffffffffffffffffff1614610fbe57610f82611841565b6040517f118cdaa7000000000000000000000000000000000000000000000000000000008152600401610fb59190611a45565b60405180910390fd5b565b60008060009054906101000a900473ffffffffffffffffffffffffffffffffffffffff169050816000806101000a81548173ffffffffffffffffffffffffffffffffffffffff021916908373ffffffffffffffffffffffffffffffffffffffff1602179055508173ffffffffffffffffffffffffffffffffffffffff168173ffffffffffffffffffffffffffffffffffffffff167f8be0079c531659141344cd1fd0a4f28419497f9722a3daafe3b4186f6b6457e060405160405180910390a35050565b611100848573ffffffffffffffffffffffffffffffffffffffff166323b872dd8686866040516024016110b99392919061202b565b604051602081830303815290604052915060e01b6020820180517bffffffffffffffffffffffffffffffffffffffffffffffffffffffff838183161783525050505061179f565b50505050565b600060026000838152602001908152602001600020905060008060005b600115611217576001600644878460405160200161114393929190612122565b6040516020818303038152906040528051906020012060001c6111669190612199565b6111709190611c94565b92506001600644878460405160200161118b93929190612216565b6040516020818303038152906040528051906020012060001c6111ae9190612199565b6111b89190611c94565b91508183036112175780806111cc90612062565b91505060648110611212576040517f08c379a0000000000000000000000000000000000000000000000000000000008152600401611209906122aa565b60405180910390fd5b611123565b600082841161124a578460010160009054906101000a900473ffffffffffffffffffffffffffffffffffffffff16611270565b8460000160009054906101000a900473ffffffffffffffffffffffffffffffffffffffff165b905060008385116112a5578560000160009054906101000a900473ffffffffffffffffffffffffffffffffffffffff166112cb565b8560010160009054906101000a900473ffffffffffffffffffffffffffffffffffffffff165b90506000600287600301546112e091906122ca565b9050600060647f000000000000000000000000000000000000000000000000000000000000000073ffffffffffffffffffffffffffffffffffffffff1663eaf98d236040518163ffffffff1660e01b8152600401602060405180830381865afa158015611351573d6000803e3d6000fd5b505050506040513d601f19601f820116820180604052508101906113759190612321565b8361138091906122ca565b61138a919061234e565b90506000818361139a919061237f565b905060008960050160006101000a81548160ff0219169083151502179055507f000000000000000000000000000000000000000000000000000000000000000073ffffffffffffffffffffffffffffffffffffffff1663962c7bfa86856040518363ffffffff1660e01b8152600401611414929190611de6565b600060405180830381600087803b15801561142e57600080fd5b505af192505050801561143f575060015b507f000000000000000000000000000000000000000000000000000000000000000073ffffffffffffffffffffffffffffffffffffffff16630f6c7b7885856040518363ffffffff1660e01b815260040161149b929190611de6565b600060405180830381600087803b1580156114b557600080fd5b505af19250505080156114c6575060015b50600073ffffffffffffffffffffffffffffffffffffffff168960020160009054906101000a900473ffffffffffffffffffffffffffffffffffffffff1673ffffffffffffffffffffffffffffffffffffffff160361169e5760007f000000000000000000000000000000000000000000000000000000000000000073ffffffffffffffffffffffffffffffffffffffff168360405161156590611d65565b60006040518083038185875af1925050503d80600081146115a2576040519150601f19603f3d011682016040523d82523d6000602084013e6115a7565b606091505b50509050806115eb576040517f08c379a00000000000000000000000000000000000000000000000000000000081526004016115e2906123ff565b60405180910390fd5b60008673ffffffffffffffffffffffffffffffffffffffff168360405161161190611d65565b60006040518083038185875af1925050503d806000811461164e576040519150601f19603f3d011682016040523d82523d6000602084013e611653565b606091505b5050905080611697576040517f08c379a000000000000000000000000000000000000000000000000000000000815260040161168e9061246b565b60405180910390fd5b5050611755565b6117097f0000000000000000000000000000000000000000000000000000000000000000837f000000000000000000000000000000000000000000000000000000000000000073ffffffffffffffffffffffffffffffffffffffff16610ccb9092919063ffffffff16565b61175485827f000000000000000000000000000000000000000000000000000000000000000073ffffffffffffffffffffffffffffffffffffffff16610ccb9092919063ffffffff16565b5b897f8508e140cbe089288c33e09b845bfd83d187d7bce0627c58e28b95ae3d8fe7f6868a8a8560405161178b949392919061248b565b60405180910390a250505050505050505050565b600080602060008451602086016000885af1806117c2576040513d6000823e3d81fd5b3d9250600051915050600082146117dd5760018114156117f9565b60008473ffffffffffffffffffffffffffffffffffffffff163b145b1561183b57836040517f5274afe70000000000000000000000000000000000000000000000000000000081526004016118329190611a45565b60405180910390fd5b50505050565b600033905090565b600080fd5b6000819050919050565b6118618161184e565b811461186c57600080fd5b50565b60008135905061187e81611858565b92915050565b60006020828403121561189a57611899611849565b5b60006118a88482850161186f565b91505092915050565b600073ffffffffffffffffffffffffffffffffffffffff82169050919050565b60006118dc826118b1565b9050919050565b6118ec816118d1565b82525050565b6118fb8161184e565b82525050565b60008115159050919050565b61191681611901565b82525050565b600060c08201905061193160008301896118e3565b61193e60208301886118e3565b61194b60408301876118e3565b61195860608301866118f2565b61196560808301856118f2565b61197260a083018461190d565b979650505050505050565b6000819050919050565b60006119a261199d611998846118b1565b61197d565b6118b1565b9050919050565b60006119b482611987565b9050919050565b60006119c6826119a9565b9050919050565b6119d6816119bb565b82525050565b60006020820190506119f160008301846119cd565b92915050565b6000611a0282611987565b9050919050565b6000611a14826119f7565b9050919050565b611a2481611a09565b82525050565b6000602082019050611a3f6000830184611a1b565b92915050565b6000602082019050611a5a60008301846118e3565b92915050565b6000602082019050611a7560008301846118f2565b92915050565b6000611a86826119a9565b9050919050565b611a9681611a7b565b82525050565b6000602082019050611ab16000830184611a8d565b92915050565b611ac0816118d1565b8114611acb57600080fd5b50565b600081359050611add81611ab7565b92915050565b600060208284031215611af957611af8611849565b5b6000611b0784828501611ace565b91505092915050565b600082825260208201905092915050565b7f47616d65206e6f74206163746976650000000000000000000000000000000000600082015250565b6000611b57600f83611b10565b9150611b6282611b21565b602082019050919050565b60006020820190508181036000830152611b8681611b4a565b9050919050565b7f47616d6520616c7265616479206a6f696e656400000000000000000000000000600082015250565b6000611bc3601383611b10565b9150611bce82611b8d565b602082019050919050565b60006020820190508181036000830152611bf281611bb6565b9050919050565b7f4f6e6c7920706c61796572312063616e20726566756e64000000000000000000600082015250565b6000611c2f601783611b10565b9150611c3a82611bf9565b602082019050919050565b60006020820190508181036000830152611c5e81611c22565b9050919050565b7f4e487b7100000000000000000000000000000000000000000000000000000000600052601160045260246000fd5b6000611c9f8261184e565b9150611caa8361184e565b9250828201905080821115611cc257611cc1611c65565b5b92915050565b7f5761697420323420686f75727300000000000000000000000000000000000000600082015250565b6000611cfe600d83611b10565b9150611d0982611cc8565b602082019050919050565b60006020820190508181036000830152611d2d81611cf1565b9050919050565b600081905092915050565b50565b6000611d4f600083611d34565b9150611d5a82611d3f565b600082019050919050565b6000611d7082611d42565b9150819050919050565b7f526566756e64206661696c656400000000000000000000000000000000000000600082015250565b6000611db0600d83611b10565b9150611dbb82611d7a565b602082019050919050565b60006020820190508181036000830152611ddf81611da3565b9050919050565b6000604082019050611dfb60008301856118e3565b611e0860208301846118f2565b9392505050565b7f4d696e207374616b6520302e3120455448000000000000000000000000000000600082015250565b6000611e45601183611b10565b9150611e5082611e0f565b602082019050919050565b60006020820190508181036000830152611e7481611e38565b9050919050565b7f4d696e207374616b6520302e3120555344430000000000000000000000000000600082015250565b6000611eb1601283611b10565b9150611ebc82611e7b565b602082019050919050565b60006020820190508181036000830152611ee081611ea4565b9050919050565b7f43616e6e6f7420706c617920616761696e737420796f757273656c6600000000600082015250565b6000611f1d601c83611b10565b9150611f2882611ee7565b602082019050919050565b60006020820190508181036000830152611f4c81611f10565b9050919050565b7f4d757374206d6174636820455448207374616b65000000000000000000000000600082015250565b6000611f89601483611b10565b9150611f9482611f53565b602082019050919050565b60006020820190508181036000830152611fb881611f7c565b9050919050565b7f446f206e6f742073656e642045544820666f7220555344432067616d65000000600082015250565b6000611ff5601d83611b10565b915061200082611fbf565b602082019050919050565b6000602082019050818103600083015261202481611fe8565b9050919050565b600060608201905061204060008301866118e3565b61204d60208301856118e3565b61205a60408301846118f2565b949350505050565b600061206d8261184e565b91507fffffffffffffffffffffffffffffffffffffffffffffffffffffffffffffffff820361209f5761209e611c65565b5b600182019050919050565b6000819050919050565b6120c56120c08261184e565b6120aa565b82525050565b600081905092915050565b7f706c617965723100000000000000000000000000000000000000000000000000600082015250565b600061210c6007836120cb565b9150612117826120d6565b600782019050919050565b600061212e82866120b4565b60208201915061213e82856120b4565b60208201915061214e82846120b4565b60208201915061215d826120ff565b9150819050949350505050565b7f4e487b7100000000000000000000000000000000000000000000000000000000600052601260045260246000fd5b60006121a48261184e565b91506121af8361184e565b9250826121bf576121be61216a565b5b828206905092915050565b7f706c617965723200000000000000000000000000000000000000000000000000600082015250565b60006122006007836120cb565b915061220b826121ca565b600782019050919050565b600061222282866120b4565b60208201915061223282856120b4565b60208201915061224282846120b4565b602082019150612251826121f3565b9150819050949350505050565b7f546f6f206d616e792072652d726f6c6c73000000000000000000000000000000600082015250565b6000612294601183611b10565b915061229f8261225e565b602082019050919050565b600060208201905081810360008301526122c381612287565b9050919050565b60006122d58261184e565b91506122e08361184e565b92508282026122ee8161184e565b9150828204841483151761230557612304611c65565b5b5092915050565b60008151905061231b81611858565b92915050565b60006020828403121561233757612336611849565b5b60006123458482850161230c565b91505092915050565b60006123598261184e565b91506123648361184e565b9250826123745761237361216a565b5b828204905092915050565b600061238a8261184e565b91506123958361184e565b92508282039050818111156123ad576123ac611c65565b5b92915050565b7f466565207472616e73666572206661696c656400000000000000000000000000600082015250565b60006123e9601383611b10565b91506123f4826123b3565b602082019050919050565b60006020820190508181036000830152612418816123dc565b9050919050565b7f5061796f7574206661696c656400000000000000000000000000000000000000600082015250565b6000612455600d83611b10565b91506124608261241f565b602082019050919050565b6000602082019050818103600083015261248481612448565b9050919050565b60006080820190506124a060008301876118e3565b6124ad60208301866118f2565b6124ba60408301856118f2565b6124c760608301846118f2565b9594505050505056fea26469706673582212202ecfc72f52809e282d507f9cef3112e4aeaaab76c06e52f5b4b3e52d54663eb564736f6c634300081c0033",
  "linkReferences": {},
  "deployedLinkReferences": {}
}