{
  "_format": "hh-sol-artifact-1",
  "contractName": "Treasury",
  "sourceName": "contracts/Treasury.sol",
  "abi": [
    {
      "inputs": [
        {
          "internalType": "address",
          "name": "initialOwner",
          "type": "address"
        }
      ],
      "stateMutability": "nonpayable",
      "type": "constructor"
    },
    {
      "inputs": [
        {
          "internalType": "address",
          "name": "owner",
          "type": "address"
        }
      ],
      "name": "OwnableInvalidOwner",
      "type": "error"
    },
    {
      "inputs": [
        {
          "internalType": "address",
          "name": "account",
          "type": "address"
        }
      ],
      "name": "OwnableUnauthorizedAccount",
      "type": "error"
    },
    {
      "inputs": [
        {
          "internalType": "address",
          "name": "token",
          "type": "address"
        }
      ],
      "name": "SafeERC20FailedOperation",
      "type": "error"
    },
    {
      "anonymous": false,
      "inputs": [
        {
          "indexed": true,
          "internalType": "address",
          "name": "from",
          "type": "address"
        },
        {
          "indexed": false,
          "internalType": "uint256",
          "name": "amount",
          "type": "uint256"
        }
      ],
      "name": "FeeCollected",
      "type": "event"
    },
    {
      "anonymous": false,
      "inputs": [
        {
          "indexed": true,
          "internalType": "address",
          "name": "previousOwner",
          "type": "address"
        },
        {
          "indexed": true,
          "internalType": "address",
          "name": "newOwner",
          "type": "address"
        }
      ],
      "name": "OwnershipTransferred",
      "type": "event"
    },
    {
      "anonymous": false,
      "inputs": [
        {
          "indexed": true,
          "internalType": "address",
          "name": "owner",
          "type": "address"
        },
        {
          "indexed": false,
          "internalType": "uint256",
          "name": "amount",
          "type": "uint256"
        }
      ],
      "name": "Withdrawn",
      "type": "event"
    },
    {
      "inputs": [],
      "name": "FEE_PERCENT",
      "outputs": [
        {
          "internalType": "uint256",
          "name": "",
          "type": "uint256"
        }
      ],
      "stateMutability": "view",
      "type": "function"
    },
    {
      "inputs": [],
      "name": "getBalance",
      "outputs": [
        {
          "internalType": "uint256",
          "name": "",
          "type": "uint256"
        }
      ],
      "stateMutability": "view",
      "type": "function"
    },
    {
      "inputs": [],
      "name": "owner",
      "outputs": [
        {
          "internalType": "address",
          "name": "",
          "type": "address"
        }
      ],
      "stateMutability": "view",
      "type": "function"
    },
    {
      "inputs": [],
      "name": "renounceOwnership",
      "outputs": [],
      "stateMutability": "nonpayable",
      "type": "function"
    },
    {
      "inputs": [
        {
          "internalType": "address",
          "name": "newOwner",
          "type": "address"
        }
      ],
      "name": "transferOwnership",
      "outputs": [],
      "stateMutability": "nonpayable",
      "type": "function"
    },
    {
      "inputs": [
        {
          "internalType": "uint256",
          "name": "amount",
          "type": "uint256"
        }
      ],
      "name": "withdraw",
      "outputs": [],
      "stateMutability": "nonpayable",
      "type": "function"
    },
    {
      "inputs": [
        {
          "internalType": "address",
          "name": "token",
          "type": "address"
        },
        {
          "internalType": "uint256",
          "name": "amount",
          "type": "uint256"
        }
      ],
      "name": "withdrawToken",
      "outputs": [],
      "stateMutability": "nonpayable",
      "type": "function"
    },
    {
      "stateMutability": "payable",
      "type": "receive"
    }
  ],
  "bytecode": "0x608060405234801561001057600080fd5b50604051610c21380380610c21833981810160405281019061003291906101e2565b80600073ffffffffffffffffffffffffffffffffffffffff168173ffffffffffffffffffffffffffffffffffffffff16036100a55760006040517f1e4fbdf700000000000000000000000000000000000000000000000000000000815260040161009c919061021e565b60405180910390fd5b6100b4816100bb60201b60201c565b5050610239565b60008060009054906101000a900473ffffffffffffffffffffffffffffffffffffffff169050816000806101000a81548173ffffffffffffffffffffffffffffffffffffffff021916908373ffffffffffffffffffffffffffffffffffffffff1602179055508173ffffffffffffffffffffffffffffffffffffffff168173ffffffffffffffffffffffffffffffffffffffff167f8be0079c531659141344cd1fd0a4f28419497f9722a3daafe3b4186f6b6457e060405160405180910390a35050565b600080fd5b600073ffffffffffffffffffffffffffffffffffffffff82169050919050565b60006101af82610184565b9050919050565b6101bf816101a4565b81146101ca57600080fd5b50565b6000815190506101dc816101b6565b92915050565b6000602082840312156101f8576101f761017f565b5b6000610206848285016101cd565b91505092915050565b610218816101a4565b82525050565b6000602082019050610233600083018461020f565b92915050565b6109d9806102486000396000f3fe6080604052600436106100745760003560e01c80638da5cb5b1161004e5780638da5cb5b146101435780639e281a981461016e578063eaf98d2314610197578063f2fde38b146101c2576100d3565b806312065fe0146100d85780632e1a7d4d14610103578063715018a61461012c576100d3565b366100d35760003411156100d1573373ffffffffffffffffffffffffffffffffffffffff167f06c5efeff5c320943d265dc4e5f1af95ad523555ce0c1957e367dda5514572df346040516100c891906106dd565b60405180910390a25b005b600080fd5b3480156100e457600080fd5b506100ed6101eb565b6040516100fa91906106dd565b60405180910390f35b34801561010f57600080fd5b5061012a60048036038101906101259190610729565b6101f3565b005b34801561013857600080fd5b5061014161034a565b005b34801561014f57600080fd5b5061015861035e565b6040516101659190610797565b60405180910390f35b34801561017a57600080fd5b50610195600480360381019061019091906107de565b610387565b005b3480156101a357600080fd5b506101ac6103c5565b6040516101b991906106dd565b60405180910390f35b3480156101ce57600080fd5b506101e960048036038101906101e4919061081e565b6103ca565b005b600047905090565b6101fb610450565b4781111561023e576040517f08c379a0000000000000000000000000000000000000000000000000000000008152600401610235906108a8565b60405180910390fd5b600061024861035e565b73ffffffffffffffffffffffffffffffffffffffff168260405161026b906108f9565b60006040518083038185875af1925050503d80600081146102a8576040519150601f19603f3d011682016040523d82523d6000602084013e6102ad565b606091505b50509050806102f1576040517f08c379a00000000000000000000000000000000000000000000000000000000081526004016102e89061095a565b60405180910390fd5b6102f961035e565b73ffffffffffffffffffffffffffffffffffffffff167f7084f5476618d8e60b11ef0d7d3f06914655adb8793e28ff7f018d4c76d505d58360405161033e91906106dd565b60405180910390a25050565b610352610450565b61035c60006104d7565b565b60008060009054906101000a900473ffffffffffffffffffffffffffffffffffffffff16905090565b61038f610450565b6103c161039a61035e565b828473ffffffffffffffffffffffffffffffffffffffff1661059b9092919063ffffffff16565b5050565b600a81565b6103d2610450565b600073ffffffffffffffffffffffffffffffffffffffff168173ffffffffffffffffffffffffffffffffffffffff16036104445760006040517f1e4fbdf700000000000000000000000000000000000000000000000000000000815260040161043b9190610797565b60405180910390fd5b61044d816104d7565b50565b61045861061a565b73ffffffffffffffffffffffffffffffffffffffff1661047661035e565b73ffffffffffffffffffffffffffffffffffffffff16146104d55761049961061a565b6040517f118cdaa70000000000000000000000000000000000000000000000000000000081526004016104cc9190610797565b60405180910390fd5b565b60008060009054906101000a900473ffffffffffffffffffffffffffffffffffffffff169050816000806101000a81548173ffffffffffffffffffffffffffffffffffffffff021916908373ffffffffffffffffffffffffffffffffffffffff1602179055508173ffffffffffffffffffffffffffffffffffffffff168173ffffffffffffffffffffffffffffffffffffffff167f8be0079c531659141344cd1fd0a4f28419497f9722a3daafe3b4186f6b6457e060405160405180910390a35050565b610615838473ffffffffffffffffffffffffffffffffffffffff1663a9059cbb85856040516024016105ce92919061097a565b604051602081830303815290604052915060e01b6020820180517bffffffffffffffffffffffffffffffffffffffffffffffffffffffff8381831617835250505050610622565b505050565b600033905090565b600080602060008451602086016000885af180610645576040513d6000823e3d81fd5b3d92506000519150506000821461066057600181141561067c565b60008473ffffffffffffffffffffffffffffffffffffffff163b145b156106be57836040517f5274afe70000000000000000000000000000000000000000000000000000000081526004016106b59190610797565b60405180910390fd5b50505050565b6000819050919050565b6106d7816106c4565b82525050565b60006020820190506106f260008301846106ce565b92915050565b600080fd5b610706816106c4565b811461071157600080fd5b50565b600081359050610723816106fd565b92915050565b60006020828403121561073f5761073e6106f8565b5b600061074d84828501610714565b91505092915050565b600073ffffffffffffffffffffffffffffffffffffffff82169050919050565b600061078182610756565b9050919050565b61079181610776565b82525050565b60006020820190506107ac6000830184610788565b92915050565b6107bb81610776565b81146107c657600080fd5b50565b6000813590506107d8816107b2565b92915050565b600080604083850312156107f5576107f46106f8565b5b6000610803858286016107c9565b925050602061081485828601610714565b9150509250929050565b600060208284031215610834576108336106f8565b5b6000610842848285016107c9565b91505092915050565b600082825260208201905092915050565b7f496e73756666696369656e742062616c616e6365000000000000000000000000600082015250565b600061089260148361084b565b915061089d8261085c565b602082019050919050565b600060208201905081810360008301526108c181610885565b9050919050565b600081905092915050565b50565b60006108e36000836108c8565b91506108ee826108d3565b600082019050919050565b6000610904826108d6565b9150819050919050565b7f5769746864726177616c206661696c6564000000000000000000000000000000600082015250565b600061094460118361084b565b915061094f8261090e565b602082019050919050565b6000602082019050818103600083015261097381610937565b9050919050565b600060408201905061098f6000830185610788565b61099c60208301846106ce565b939250505056fea264697066735822122086f55c9951702a133bad347a4ac5030660e2b7c9f2639dde5656c0f19f98f78c64736f6c634300081c0033",
  "linkReferences": {},
  "deployedLinkReferences": {}
}